:0C0000000C942A000C9400000C940000EA
:10000C000C9400000C9400000C9400000C94000064
:10001C000C9400000C9400000C9400000C94000054
:10002C000C9400000C9400000C9400000C94000044
:10003C000C9400000C9400000C9400000C94000034
:10004C000C9400000C940000F894EE27ECBBF1E04B
:10005C00FBBFEBBFE5BF8DE0A2E0BB27ED938A951C
:10006C00E9F780E098E0A0E6ED930197E9F7EFE57A
:10007C00EDBFE8E0EEBFC0E6D2E00C944500EFEF38
:10008C00E4BB2497E4E1F0E0E883F983A881B9812B
:10009C00A83CE0E0BE0794F534D03DD043D04CD022
:1000AC0052D05BD061D06AD0E0E0EA83EB83AA81C6
:1000BC00BB8113973CF469D0EA81FB813196EA83CA
:1000CC00FB83F5CFE0E05AD04FD047D03CD034D0B2
:1000DC0029D021D016D0EA83EB83AA81BB81139758
:1000EC003CF453D0EA81FB813196EA83FB83F5CF54
:1000FC00E881F9813596E883F983C8CF2496C1CF7E
:10010C00FFCFE0E0E5BBE1E0E5BBA881B9810E944F
:10011C00D400E0E00895E5BBE2E0E5BBA881B9813D
:10012C000C94D400E0E0E5BBE4E0E5BBA881B98128
:10013C000E94D400E0E00895E5BBE8E0E5BBA881AF
:10014C00B9810C94D400E0E0E5BBE0E1E5BBA8810B
:10015C00B9810E94D400E0E00895E5BBE0E2E5BB84
:10016C00A881B9810C94D400E0E0E5BBE0E4E5BBE8
:10017C00A881B9810E94D400E0E00895E5BBE0E8D5
:10018C00E5BBA881B9810C94D400EFEFE5BBA2E3E9
:10019C00B0E00E94D400E0E0E5BB0895109639F081
:1001AC0080ED97E00197F1F7A8951197C9F708959D
:00000001FF
